:020000040800F2
:1000000000200020150300083102000895020008B6
:1000100000000000000000000000000000000000E0
:10002000000000000000000000000000D5000008F3
:1000300000000000000000005901000865010008F0
:1000400031020008310200083102000831020008C4
:1000500031020008310200083102000831020008B4
:1000600031020008310200083102000831020008A4
:100070003102000831020008310200083102000894
:100080003102000831020008310200083102000884
:100090003102000831020008310200083102000874
:1000A0003102000831020008310200083102000864
:1000B0003102000831020008310200083102000854
:1000C0000348854600F09CF8004800473D030008BF
:1000D000002000207046C0082DD3EFF3098081690D
:1000E000891E097800292AD101B50FC8B8470CBC70
:1000F00010609E461E4B06CB91421FD0083B1A60F3
:10010000002909D0EFF3098020388863F0C0444605
:100110004D4656465F46F0C01400A06B1030F0C844
:10012000A046A946B246BB4680F309882038F0C8ED
:100130000220C0430047EFF30880D0E770470D4A24
:1001400013689942FAD801B5890053589C460FC8E4
:10015000E0470CBC1060184701B500F067FC03BC19
:100160008E46C7E701B500F0E9FF03BC8E46C1E744
:1001700018000020281E000803460B439B0703D0ED
:1001800009E008C9121F08C0042AFAD203E00B785C
:100190000370401C491C521EF9D27047D2B201E0D4
:1001A0000270401C491EFBD270470022F6E710B5D2
:1001B00013460A4604461946FFF7F0FF204610BDD5
:1001C00070B50446002903D000202022012310E04E
:1001D000002801D00020C043C046C0460DE025469F
:1001E000D5408D4205D30D469540641B1D46954074
:1001F00040191546521E002DF1DC214670BD00004D
:100200001CB5094800900948019005460126009C4C
:1002100005E0E36807CC33430C3C98471034AC420C
:10022000F7D3FFF751FF0000CC1E0008EC1E0008BA
:10023000FEE77047704770477047704770477047D8
:1002400070477047704770477047704770477047F6
:1002500070477047704770477047704770477047E6
:1002600070477047704770477047704770477047D6
:1002700070477047704770477047704770477047C6
:1002800070477047704770477047704770477047B6
:1002900070477047FEE700001C4800687047C04682
:1002A0001B480178012905D1002101700120800639
:1002B000034908601548016801220A43026070473B
:1002C00004ED00E00020C04370470000B0B50025F9
:1002D000EC43002815D0014616480068FFF770FF70
:1002E000401E010E0DD1FF210906074A13680B437A
:1002F0001360064906220A604860054805708D6053
:100300002C462046B0BDC04620ED00E010E000E0E5
:100310005818002000F002F8FFF7D2FE0348044905
:1003200001600448044901607047C04608ED00E0E0
:10033000000000080000002040787D0148210120D5
:100340000A4A0B4B1160195C401C1A28FAD100F0C4
:1003500049F8084800210A4600F0C6FF00F026F8D8
:10036000012801D100F058F8FEE7C04604380140EA
:10037000A61E0008351D0008D0B50446FFF759FF3A
:10038000EFF30580002803D1EFF31080002806D09A
:100390000520C4432046FFF74EFF2046D0BD024F44
:1003A000204600DFD0BDC0462D130008D0B5EFF3C6
:1003B0000580002807D1EFF31080002803D1EFF368
:1003C0001480C00706D10648047A2046FFF738FF9C
:1003D0002046D0BD014F00DFD0BDC04661130008EC
:1003E00004000020D0B500F0EDF8FFF72AFFEFF38E
:1003F0000580002803D1EFF31080002806D00520E7
:10040000C4432046FFF71AFF2046D0BD014F00DF4E
:10041000D0BDC04675130008D0B5FFF714FFEFF349
:100420000580002803D1EFF31080002806D00520B6
:10043000C4432046FFF702FF2046D0BD014F00DF36
:10044000D0BDC046C1140008F0B581B01E461746A5
:100450000D460446FFF702FFEFF30580002803D1A5
:10046000EFF31080002845D0002C3AD0002E38D170
:10047000002D36D02078FA2833D1EFF3108072B6F1
:10048000A16A002901D04A1EA2623E46002800D17E
:1004900062B6002700290ED0E16A00290BD072B69F
:1004A0008A7801238B70002800D162B6002A29D0F7
:1004B00089680029F3D1002F27D0626A39460C31B0
:1004C0002846FFF759FE002E01D0F8783070FC6006
:1004D000384600F0EFFA20462946FFF7C9FE00250E
:1004E00005E00320C54320462946FFF7B6FE28460F
:1004F00001B0F0BD3A46094F20462946334600DF99
:100500000546F4E70F46002FD7D120462946FFF7CE
:10051000ABFE0320C043451CE9E7C0464515000873
:10052000F0B581B01E4617460D460446FFF79DFE06
:10053000EFF30580002803D1EFF3108000282DD0C1
:10054000002C22D0002E20D1002D1ED02078FA2899
:100550001BD13E4620460C3000F0C6F8002825D0BE
:100560000746626A0C302946FFF706FE7D60BC60D4
:10057000FE700026BE70F9203870384600F09AFAF6
:1005800020462946FFF76DFE05E00320C6432046BE
:100590003146FFF762FE304601B0F0BD3A46074FE4
:1005A00020462946334600DF0646F4E72046294622
:1005B000FFF759FE0320C043461CECE7F91800087A
:1005C000FEE7FEE77047B0B50C460546FFF737FE7D
:1005D00028462146FFF7F4FFB0BDF0B583B00028F0
:1005E00015D0002913D0042A11D20B460F3307244B
:1005F000A34304460834A0CC0326B743083C3F1964
:10060000EF1B9F4205D22C68002C2C46F3D100240E
:100610001DE0029101924768F91841600768C2190C
:10062000083A57688F4200D251606768002F0299DC
:1006300009D0B7433D51019D2B433A1953602260C5
:1006400014462A4602E0019A1343636008342346A5
:10065000FFF7FBFD204603B0F0BDB0B50024002835
:100660001FD000291DD0024608320C46083C944297
:1006700006D013461268002A0ED0A242F9D100E03B
:10068000002354680325AC4345682C1B4460002BB1
:1006900004D012681A6003E0002402E000235360D3
:1006A00001242246FFF7D5FD2046B0BD10B5002835
:1006B00014D007220346134010D118290ED30A4044
:1006C0000CD10A18083A8260002313608268102453
:1006D000546012C043600124083800E00024224620
:1006E000FFF7B8FD204610BD10B5EFF310810028CC
:1006F0000CD072B64469002C04D022684261426872
:10070000521C4260002903D162B601E00024204659
:100710002146FFF79BFD204610BD10B5EFF3108278
:10072000002811D0C3688B420ED803698B420BD9C5
:1007300072B643690B60416143685B1E4360002AE7
:1007400000D162B6002401E00322D4432246FFF721
:100750007EFD204610BDF0B581B00E460021002878
:1007600021D0002E1FD01446002A1CD01D46002B7D
:1007700019D00027314661436918C0C00460456044
:100780008160C560314622462B460838FFF760FD80
:10079000701E05D029192960401E0D46FAD100E0CF
:1007A00029460F600121084601B0F0BDF0B581B0C7
:1007B000044641688078002805D0E568002931D0DA
:1007C0000846083030E0A568A868002875D0407851
:1007D000832872D12846FFF745FD284600F0FEFA2F
:1007E000074600263146324600F062FC384600F0EB
:1007F000B3FB074640686A6A21460C310090FFF758
:10080000BBFCB868002801D0E17801702846009947
:10081000FFF72EFD26700C3528462146FFF77DFF99
:1008200001B0F0BD28462C30A26802600026267078
:10083000A068002801D0001D01E02846303001608A
:100840002F460C3738462146FFF767FFA868002877
:1008500000D17CE03846FFF747FF002877D00446F8
:10086000284600F0BBFA07463146324600F020FC2D
:10087000384600F071FB074641686A6A20460C3032
:100880000091FFF779FCA670F9202070B868E0703D
:1008900028463030EFF310832A6B002A31D01946F6
:1008A000E378D7789F421ED216465268002AF8D1C4
:1008B0006260A6602A462C3218E02846FFF7D2FC78
:1008C00029463031EFF310802A6B002A14D0E678E5
:1008D000D378B34227D213465268002A28D0D7785B
:1008E000B742F8D320E06260A66008321460002EA0
:1008F0000B460AD0301D08E000226260A260EC6264
:100900001EE000226260A260EC620099046072B690
:10091000A86A401CA862002B00D162B62846FFF7E7
:10092000A1FC01B0F0BD00236260A360083203E0C7
:100930006260A3602A462C321460002B00D0191D7F
:100940000C6072B6A96A491CA962002801D001B0E6
:10095000F0BD62B601B0F0BD80B50748826EC06ED2
:10096000082100F0C7FE0146C248C16400200029EA
:1009700000D1C04380BDC046801D0008F0B581B0E5
:10098000002827D0044607E001212976FD62284689
:10099000FFF770FC002C1DD025466469E87800073D
:1009A000F8D500262E7628463146FFF764FCA86865
:1009B0000028EFD0284600F011FA074631463246AB
:1009C00000F076FB2E61EF60F86A68610028DBD0EA
:1009D0000561D9E701B0F0BD70B5C278920723D5A3
:1009E000C068C36A02462032547803E02C465B6933
:1009F000002B12D0DD78AD07F9D59D688D4202D06D
:100A0000002D03D1F3E7AD68002DF0D02026AD57BF
:100A100064B2A542EADC2546E8E7E1B213788B42EE
:100A200002D0147000F005FA70BD000070B5174CCC
:100A300017A55420235A72B62146543148880028FD
:100A40000CD0401E4880C888421C96B29E4200D1FD
:100A50000022E36D80001858CA8000E0002062B6D2
:100A600000280FD001780F31CAB2082AE1D8FF233D
:100A70006633D340DA07DCD049B289006958096887
:100A80008847D6E7002000F0F7F870BD040000208A
:100A90006400002064000020680000206400002042
:100AA000640000206C000020700000206400002022
:100AB00074000020F0B581B00146EFF3108354229A
:100AC000C548825A72B6054654356C8894420AD39A
:100AD000002B1AD094421BD2417A00291DD001214B
:100AE000817201B0F0BDC66DAF880846B9000090B4
:100AF0007050611C69807E1CB1B2914200D1002609
:100B00000099B548AE80002BE4D162B69442E3D39D
:100B10000220FFF758FD01B0F0BD01200007024997
:100B2000086001B0F0BDC04604ED00E07047000071
:100B300070B5A94EF46A002C03D0E069401EE06154
:100B400004D070BDE069002800D08FE060781338D1
:100B50000421C84108285CD87844007940008744C3
:100B60000458080C182935414D002046FFF762FB58
:100B70004FE02046FFF787FB4BE02078F128204626
:100B800004D12046C0680178F129FBD0FFF755FB5E
:100B90003FE02078F128254604D12546ED682878E5
:100BA000F128FBD028462146FFF716FF2846FFF71D
:100BB00060FB2EE02078F128204604D12046C06852
:100BC0000178F129FBD0FFF757FB22E02078F128CC
:100BD000204604D12046C0680178F129FBD0FFF7F8
:100BE0003AFB16E02078F128204604D12046C06860
:100BF0000178F129FBD0FFF733FB0AE02078F128D8
:100C0000204604D12046C0680178F129FBD0FFF7C7
:100C10002EFBA06B016A2046FFF73AFBE068002834
:100C200007D0A1688160A168002900D0C8600020B9
:100C3000E060012060702022A35630461C3001463F
:100C40008068002807D085569D42F8DAA060E160F0
:100C50008C600C3003E0A060E1600831084604605D
:100C60002469002C00D06DE7F46270BD0020606143
:100C7000F46270BD04000020F0B581B00446D44D8C
:100C80006869297A002C28D0022914D120228356A1
:100C9000A15699420FDD0121417029461C310E46B3
:100CA0008968002943D08F569F42F8DC8160C66076
:100CB000B0600C313FE001206070202162561C358D
:100CC0002846AD68002D2DD06B569342F8DAA5600A
:100CD000E0608460EC6001B0F0BD022925D16C6A4F
:100CE000002C22D020214256635693421DDDE3683A
:100CF000002B07D0A6689E60A668002E00D0F36087
:100D00000023E360012343702B461C331E469B687F
:100D1000002B1FD05F569742F8DC8360C660B0603E
:100D20000C331BE0A560E060846001B0F0BD816021
:100D3000C660083631460860FFF7A8FA02206070E6
:100D4000E178490703D4032080F3148814E080F38A
:100D5000148811E08360C660083633461860FFF7D8
:100D600095FA02206070E178490703D4032080F3EC
:100D7000148801E080F31488BFF36F8FAC612046C4
:100D8000FFF785FA01B0F0BD10B50446FFF7CEFEBF
:100D900000202080A07881070CD5216BC00604D4E8
:100DA000E548406FFFF759FC04E08420E24A105800
:100DB000FFF7B3FCA078C0070DD08820DE490858A3
:100DC000002803D02146FFF7A8FC10BD802008585A
:100DD0002146FFF742FC10BD040000200146806858
:100DE00082688A60002A00D0D1600021C16070470B
:100DF000B0B52023CC5602468068002808D0C556DE
:100E0000A542F8DA8860CA6091600C300160B0BD1C
:100E10008860CA6008321160B0BDC168002907D07F
:100E200082688A608268002A00D0D1600021C16097
:100E30007047B0B54242424100282CD00178F129D8
:100E4000014608D10146C9684A424A41002922D0D8
:100E50000B78F12BF7D0002A1DD1C268002A07D0E9
:100E6000836893608368002B00D0DA600022C26040
:100E70002023C4560A468968002907D0CD56A542CA
:100E8000F8DA8160C26090600C3103E08160C2607A
:100E9000083211460860B0BDF0B581B00446407814
:100EA00033283CD12320225C9007606A13D4EFF3EF
:100EB000108172B6A56A2E46064073427341361AF7
:100EC000771EBE41D20700D03346002B12D000253A
:100ED000002915D113E0A56A2B4603405942594118
:100EE000181A431E9841D20700D00146002907D0A6
:100EF000002505E02A468243A262002900D162B69D
:100F0000002D0CD02646233600222046294600F02C
:100F1000CFF83178606A2A462346FFF7B3F901B06B
:100F2000F0BD0000B0B5012141702023C456E54951
:100F30001C310A468968002908D0CD56A542F8DA46
:100F40008160C26090600C310860B0BD8160C26099
:100F500008321060B0BDC046806B20307047000082
:100F600070B50F4DAA6D0F480024214600F0B4FD66
:100F7000D44EB062686E002804D08047002803D0A9
:100F8000204670BD012070BDF16CEA6D286E00F046
:100F9000A3FD0446B064401E8441204670BDC04697
:100FA000801D0008C305000880B502214170C27889
:100FB000520703D4032181F3148801E081F31488DC
:100FC000BFF36F8FEA498861FFF761F980BDC046C2
:100FD00004000020F0B581B00E460746E44A506A8E
:100FE000411E8841117A891E4C424C410440012C1B
:100FF0005BD1556928463146FFF73FF96F70701C89
:1010000018D0DB4FF86A414241410022002809D044
:10101000C369B34206D80246006941424141F61A0B
:101020000028F5D128616A61EE61002A15D01032DE
:101030003B4615E0CE4B19463031002210460A6877
:1010400011461031002AF9D1002129616861C94394
:10105000E96100280CD010300CE03B463A462C32B7
:101060001560002907D1C169891BC161143001E0F5
:10107000184630300560586A81685962002902D0EC
:101080001A461C32CA60022141700022C260C27836
:10109000520703D4032181F3148801E081F31488FB
:1010A000BFF36F8F9861FFF7F2F8204601B0F0BDF3
:1010B00070B515460E460446FFF7EAF8A06B0662C7
:1010C0002069E1694A1C0CD0002804D062694261A1
:1010D000C2695118C1616169002909D1F749C86223
:1010E00009E0002801D0616941616169002920D0CF
:1010F0000022626108610020E061002D03D02046DB
:10110000FFF7BAFD70BD0120607020216356EB48E7
:101110001C3002468068002807D045569D42F8DA08
:10112000A060E2609460C46070BDA060E260946002
:1011300070BDE2490863DEE704000020B0B5FFF7A8
:10114000ABF8FC4DE868401CE860FFF7F1FC0020BC
:10115000FFF792FD286D002800D08047296C0029F8
:101160002BD0A869EA6B904204D0E863C269002AD8
:1011700000D1C161C169002901D0491EC161C069A6
:1011800000281AD1287A022817D16C6A002C14D0B2
:101190002020215CEA6B105C81420ED12046FFF7D3
:1011A0003CFEE86BFFF7BEFEE86BFFF76FF82046EA
:1011B000FFF7FAFEEC63286CE061B0BD10B50024C7
:1011C000FFF7CAFB002801D0E04310BDD94802490F
:1011D0000165204610BDC0460112000882B00446D9
:1011E0000022D34369462046FFF72EF90028F7D1A5
:1011F00001990098FFF74DF8019800998847EFE7AB
:10120000F0B581B0CB4E746C002C58D02069401ED4
:1012100020617069009004E001206070746C002C03
:101220004BD02069002848D1E068002801D0A1688F
:1012300081607064F06C2146183100252A462B46E7
:10124000FFF76EF900280CD07769B0697061032050
:101250002146FFF7B8F9009847407069384300D13C
:101260000090E078C007D7D0706C4242424161697B
:1012700000281BD003698B4201D9002509E00546EF
:10128000C06842424241C91A00280FD003698B420C
:10129000F5D9A560E0602161002A03D1846002696C
:1012A000511A0161002D06D0EC60B7E7A560E0603F
:1012B0002161002DF8D17464B0E70098706101B02D
:1012C000F0BDC04604000020884700F001F800008F
:1012D000FEF7D7FF034F00DF0020C143FEF7D0FF2A
:1012E000FEE7C046391A0008F0B581B014460D4635
:1012F0000646FEF7CAFFEFF30580002803D1EFF39F
:101300001080002808D00520C14300242046FEF7A5
:10131000B7FF204601B0F0BD034F304629462246B4
:1013200000DF0446F5E7C046D91A000810B50028CA
:101330000BD0044613202146FFF74CFE002807D0AF
:101340002046FEF779FF002010BD0320C44302E0D1
:101350000320C043C41C2046FEF76DFF204610BD8D
:1013600010B5E348047A2046FEF76AFF204610BD18
:1013700004000020F0B581B0DD4E307A002808D09E
:10138000012800D194E00020C4432046FEF756FF18
:1013900091E0304608309C210091FEF706FF674F30
:1013A000388A54217052B868F968F1653064FD6A72
:1013B000396B2846FFF77AF9002801D08020355094
:1013C0007D69B9692846FFF771F9344674360028FB
:1013D00000D1F5686567FD69396A2846FFF766F947
:1013E000002800D1F568A5677D6AB96A2846FFF72D
:1013F0005DF9002800D1F5682646E5677D6B002D74
:1014000007D0AA68EB6829682846FFF7A4F984206A
:101410003550BD6B002D07D0AA68EB6829682846B7
:10142000FFF799F988203550FD6B002D07D0AA6889
:10143000EB6829682846FFF78EF98C2035503D6C03
:10144000002D07D0AA68EB6829682846FFF783F9C2
:10145000902035507D6C002D07D0AA68EB68296874
:101460002846FFF778F994203550BD6C002D07D041
:10147000AA68EB6829682846FFF76DF9982035506F
:10148000FD6C002D07D0AA68EB6829682846FFF795
:1014900062F9009835503C6D002C07D0A268E368D3
:1014A00021682046FFF757F9A02034500120307200
:1014B000FEF7C8FE0024204601B0F0BD0400002065
:1014C00010B58B4C207A01281BD1FFF749FD00286D
:1014D00013D0FF20000418490A6802430A60086814
:1014E000091F0A68400C80061043086013484068D2
:1014F0001349FEF7EBFE00280AD00020C443204623
:1015000002E00020C443E01FFEF798FE204610BD15
:10151000FEF7D8FE2061FEF7C3FE20461C30FFF721
:101520005DFCFFF741FD02202072FEF78DFE0020DA
:1015300010BDC0460400002020ED00E0801D000822
:1015400065010008F0B583B0044600282CD00D4694
:10155000002929D02078FA2826D11E46EFF31080E2
:1015600072B6A16A002901D04B1EA3620292002824
:1015700000D162B6002700290ED0E16A00290BD005
:1015800072B68A7801238B70002800D162B6002AD7
:101590006DD089680029F3D1002F6BD078680028BE
:1015A0000BD0014608310AE00320C64320463146ED
:1015B000FEF753FE304603B0F0BD21462C31BA6829
:1015C0000A60B968002901D0091D01E021463031C7
:1015D0000860626A39460C312846FEF7CDFD029953
:1015E000002901D0F878087020462946FEF740FE11
:1015F00000263E7025460C3528463946FFF78DF803
:10160000A0680028D6D02846FFF76EF80028D1D071
:1016100005462046FFF7E2FB064600270122394631
:10162000FFF746FD3046FFF797FC06464168626AC1
:1016300028460C300291FEF79FFDAF70F92028700C
:10164000B068E87020463030EFF31083226B002A38
:101650003CD00193EB78D6789E422DD21746526843
:10166000002AF8D16A60AF6022462C3227E00F468C
:10167000002F93D1002E10D0204629463246FEF787
:10168000EEFD83203146FFF7A5FC00280DD0E94888
:1016900041692046FFF7ACFB0AE020462946FEF7E9
:1016A000E3FD0320C043461C84E72046FEF7D8FD37
:1016B0000320C043861C7DE76A60AF600832029950
:1016C000019B1560002F06D0381D04E000226A60DF
:1016D000AA60E5620299056072B6A06A401CA06229
:1016E000002B00D162B62046FEF7BCFD002661E764
:1016F00004000020F0B587B0002841D000293FD079
:1017000005462020002D04461AD06C082C43A3085F
:1017100023431C091C43230A23431C0C1C43E4439E
:101720006308704E1E40A41B6F4BA6081C401E4051
:10173000A4192309E4186D4B23406D4C5C43240E1F
:1017400000291AD04808084383080343180918439E
:10175000030A0343180C1843C0434308614E1E405C
:10176000801B614B860818401E4080190309C01871
:101770005E4B03405E485843000E00191F2809D8ED
:101780000A20C043C11D00273846FEF766FD3846D3
:1017900007B0F0BD0591CE1C032086430C362C46C5
:1017A00074430023002A069319461F461BD0049455
:1017B0009079C00626D40393134608330BCB0693C7
:1017C00053691768002821D0342921D1024606998F
:1017D000002953D0184606998907039B049C53D1CE
:1017E0001146A04250D30029084602971ED101910C
:1017F0000494A020B749085800280DD0FEF774FFC4
:10180000012311E00A20C043011DBCE70029DDD0FF
:101810000A20C043411CB6E7802008583421012724
:101820003A46FEF7DAFE3B46049C0199002815D0A3
:101830000490069A002A13D101910393A5482146EA
:10184000C06F00273A46FEF7C8FE0690002809D070
:1018500006982146FEF7A9FC049F1DE007461DE0FF
:10186000049F1BE00198002816D1A0209949085830
:1018700000280CD00499FEF750FF0DE0002B039BCD
:101880000693049C1146AED00A20C1437BE780201A
:1018900008580499FEF7E1FE039B9B1C002F1BD008
:1018A000002005997962B862F8623863029979601C
:1018B000B860F870BB70FA20387038460C30294692
:1018C0003246069BFEF747FF82480A49016779685E
:1018D0003846FEF7C1FC5AE70A20C043811D0020AC
:1018E00053E7C04655555555333333330F0F0F0F5C
:1018F00001010101AD070008F0B583B004460028DE
:101900002CD000292AD02078FA2827D11D46174646
:10191000A068002802912AD04078832827D1204649
:10192000FEF7A0FC2046FFF759FA054600260122E3
:101930003146FFF7BDFB2846FFF70EFB0546406822
:10194000626A01900299FEF717FCA868002800D08F
:10195000077020460199FEF78BFC05E00320C64383
:1019600020463146FEF779FC304603B0F0BD2046F4
:101970000C30FEF7B9FE00281FD00646626A0C3014
:101980000299FEF7F9FBF7700022B270F92030706F
:1019900020463030EFF31085236B002B29D02946E9
:1019A000F578DF78AF421BD21A465B68002BF8D17E
:1019B0007360B26023462C3315E0002D2BD02046F7
:1019C00002992A46FEF752FC93202946FFF702FBB4
:1019D000002828D0D34841692046FFF709FA25E0BE
:1019E0007360B26008330D461E60002A05D0101DDA
:1019F00003E000227260B260E6620299066072B68D
:101A0000A06A401CA062002D00D162B62046FEF7FD
:101A100029FC0026A8E720460299FEF724FC0320B3
:101A2000C043461CA0E72046FEF721FC0320C0432C
:101A3000861C99E70400002070B5BA4D287A022868
:101A400047D1686A002844D06C69E06AFEF796FFC7
:101A5000A069002806D000210A46FFF729FBA069EB
:101A6000FEF712FC6078232802D1A0680021816172
:101A7000686A81686962002902D02A461C32CA60FD
:101A8000022141700026C660C278520703D40321A8
:101A900081F3148801E081F31488BFF36F8FA8618C
:101AA000FEF7F5FBEFF30980A0636E61E078C007F5
:101AB00003D12046FFF768F908E0E6600420607073
:101AC000686BA060002800D0C4606C632046FEF7FD
:101AD000D6FB70BD04000020F0B587B0002808D008
:101AE00007461820002A0ED0546806232340062BF0
:101AF00016D10B20C143083100273846FEF7C0FB42
:101B0000384607B0F0BD049100252C462B462E46E2
:101B1000059006956007800F2ED0002E36D13AE052
:101B2000E30225D404919568D1681369029356693C
:101B30009369059312680692002D3ED050293ED13C
:101B4000029B002B08D0072119404A1E9141724286
:101B500072410A43012A22D00599002973D0382006
:101B6000C04339398142D5D80B20C043411EC3E759
:101B70000B20C043411DBFE768480078C00701D172
:101B8000022000E004200443002E04D0482E06D397
:101B90006348304003D1002D04D000221DE00B200B
:101BA000C143A9E7029388205E49085800280AD05B
:101BB000FEF79AFD054601220EE00029C0D00B2059
:101BC000C043811C98E780200858502101252A46EF
:101BD000FEF703FD2A460546029B002D039710D011
:101BE000002B0ED10192002E0DD04E48406F0022E6
:101BF0003146FEF7F2FC0346019A002B13D02F4624
:101C00002AE02F462AE0842046490858434A566D68
:101C1000002816D0FEF768FD03460028ECD0019A94
:101C20001032002BEBD10027D00715D00192029380
:101C300088203C490858002807D02946FEF76DFD4A
:101C400008E0486FD3E7059064E7802008582946EC
:101C5000FEF703FD029B019A02200243059D002F1F
:101C60004FD0384620300021BA70069A7A60B960A9
:101C7000F96039617961B961F961FD21817045705F
:101C800005700F200440FC70FF20F2303880384689
:101C900023300D211C46FEF788FAA01940383C631A
:101CA0007E63B8630398F8631F482060032086436F
:101CB000443E704270411949097804220A40514259
:101CC0005141014304D1201DCC223146FEF766FA72
:101CD000BD6B38212846FEF768FA0120000613493B
:101CE000A963E86304982862039868620D48104964
:101CF0000166F96B3846069AFEF7C0FA002F09D143
:101D0000FEE60B20C043C11D0020FEF7B9FA002FEC
:101D100000D1F5E63846FEF7AFFFF1E6801D00087A
:101D20000700008004000020A52E5AE2C912000816
:101D3000990E0008084C4825084E28462146306078
:101D40004A1C4878214619318A421146F7D17D2034
:101D5000C000FEF711FBF0E78C1E000804380140BC
:101D600002E008C8121F08C1002AFAD17047704764
:101D7000002001E001C1121F002AFBD170470000C2
:101D800001000000E803000005000000A80000209A
:101D90001000000000000000000000000000000033
:101DA000000000000000000000000000E80000202B
:101DB000701700000000000000000000000000009C
:101DC0000000000000000000000000000000000013
:101DD00000000000000C00002C1E0008681E000817
:101DE000DD110008BD110008501E000804000000AD
:101DF000E018002080190020000000000000000012
:101E000000000000000000000000000000000000D2
:101E100000000000000000000000000000000000C2
:101E20005C18002090180020000000000000000056
:101E300000000000E0180020500000008019002081
:101E4000000200000100000000000000000000008F
:101E500000000000000000005C18002034000000BA
:101E6000901800205000000000000000000000005A
:101E70003019002050000000801B002000020000EC
:101E800028000000000000000000000048656C6CA5
:101E90006F20776F726C642066726F6D20544153AF
:101EA0004B2021210A0048656C6C6F20776F726CA3
:101EB000642066726F6D204B45494C2021210A0039
:101EC0005254582056352E382E300000F01E00088F
:101ED00000000020A8000000601D0008981F0008F6
:101EE000A8000020D81C0000701D000800000000A1
:101EF00040787D01C01E00080029FC02000000009F
:101F000000000000000000000000000000000000D1
:101F100000000000000000000000000000000000C1
:101F200000000000000000000000000000000000B1
:101F300000000000000000000000000000000000A1
:101F40000000000000000000000000000000000091
:101F50000000000000000000000000000000000081
:101F60000000000000000000000000000000000071
:101F70000000000000000000000000000000000061
:101F80000000000000000000000000000000000051
:081F9000000000000000000049
:04000005080000C12E
:00000001FF
